:1000000063C0000086C0000084C0000082C0000001
:1000100080C000007EC000007CC000007AC00000EC
:1000200078C0000076C0000074C0000072C00000FC
:1000300070C000006EC000006CC000006AC000000C
:1000400098C3000066C0000012C2000051C2000048
:1000500060C000005EC000005CC000005AC000002C
:1000600058C0000056C00000000000070002010058
:100070000003040600000000000000000102040864
:100080001020408001020408102001020408102002
:10009000040404040404040402020202020203032E
:1000A00003030303000000002300260029000000D2
:1000B0000000250028002B0000000000240027007D
:1000C0002A0087013203940611241FBECFEFD8E027
:1000D000DEBFCDBF11E0A0E0B1E0E2E8FDE002C08C
:1000E00005900D92A231B107D9F711E0A2E1B1E07C
:1000F00001C01D92A73DB107E1F710E0C8ECD0E0C8
:1001000003C02297FE0137D6C23CD107D1F700D3F6
:1001100036C676CF78D3609316017093170180931B
:1001200018019093190161E080E291E085D561E0CA
:100130008EE191E081D561E08CE191E07DD561E0D7
:100140008AE191E079C540E855E260E070E082E242
:1001500091E009D260E083E11BD460E082E118D431
:100160006FEF80E291E0C9D564E080E291E064D570
:100170006FEF8EE191E0C1D564E08EE191E05CD556
:100180006FEF8CE191E0B9D564E08CE191E054D55A
:100190006FEF8AE191E0B1D564E08AE191E04CD55E
:1001A000B9CF62E080E291E047D562E08EE191E074
:1001B00043D561E08CE191E03FD561E08AE191E0D7
:1001C0003BD581E090E0909301018093000168EEBF
:1001D00073E080E090E053C361E080E291E02CD5D1
:1001E00061E08EE191E028D562E08CE191E024D5D8
:1001F00062E08AE191E020D51092010110920001A5
:1002000068EE73E080E090E03AC3CF92DF92EF9225
:10021000FF92F9D26B017C0162E080E291E00CD5A3
:1002200062E08EE191E008D562E08CE191E004D5D6
:1002300062E08AE191E000D580911601909117016A
:10024000A0911801B0911901A7019601281B390B43
:100250004A0B5B0BCA01B901693E33E073078105A4
:10026000910520F068EE73E080E090E0FF90EF9061
:10027000DF90CF9004C3CF93DF93EC01C6DFCD2B8B
:1002800011F4AADF01C08DDFDF91CF9143CFCF936F
:10029000DF9383E1EBD3909315018093140182E106
:1002A000E5D3EC0190931301809312018091140126
:1002B00090911501019709F5C130D105D9F48091CC
:1002C000000190910101029781F49DD2617077271E
:1002D00088279927672B29F41092010110920001B9
:1002E00004C0D0930101C09300018091000190915E
:1002F000010107C081E090E004C0219729F480E06B
:1003000090E0DF91CF91B7CFDF91CF91089542E098
:1003100061E080E291E039D442E062E08EE191E078
:1003200034D442E063E08CE191E02FD442E064E019
:100330008AE191E02AC4FC0184859585FC01E05C9A
:10034000FF4F20813181FC01EE5BFF4F8081918165
:10035000281B390B2F733327C9010895FC018485AD
:100360009585FC01E05CFF4F40815181FC01EE5B13
:10037000FF4F208131814217530741F00190F081F6
:10038000E02DE80FF91F208130E002C02FEF3FEF92
:10039000C9010895FC0184859585FC01E05CFF4F4F
:1003A00040815181FC01EE5BFF4F2081318142177A
:1003B000530781F0A081B181A80FB91F8C912081D2
:1003C00031812F5F3F4F2F73332731832083282FB5
:1003D00030E002C02FEF3FEFC9010895FC0181A179
:1003E000882329F0A489B5898C9186FFFBCF11A2BF
:1003F0000895CF93DF93FC0126853785D901A05C52
:10040000BF4F8D919C91119701968F739927E901A8
:10041000CE5BDF4F4881598184179507D9F30D9042
:10042000BC91A02DA20FB31F6C93A685B785A05CCD
:10043000BF4F11969C938E93A689B7892C9181E02A
:1004400090E0078C02C0880F991F0A94E2F7282BCE
:100450002C9381E081A30488F589E02D808180645C
:10046000808381E090E0DF91CF91089508951F92FD
:100470000F920FB60F9211242F933F934F938F93A8
:100480009F93EF93FF938091C00082FD1CC0409129
:10049000C6008091C8019091C90101968F73992778
:1004A0002091CA013091CB018217930771F0E0913E
:1004B000C801F091C901E857FE4F40839093C901EC
:1004C0008093C80102C08091C600FF91EF919F9177
:1004D0008F914F913F912F910F900FBE0F901F90D2
:1004E000189582E291E027DF892B09F0BFCF0895AC
:1004F0001F920F920FB60F9211242F933F938F9359
:100500009F93EF93FF932091840130918501809117
:100510008601909187012817390731F48091C10035
:100520008F7D8093C10014C0E0918601F091870116
:10053000EC5BFE4F208180918601909187010196AE
:100540008F73992790938701809386012093C6002B
:10055000FF91EF919F918F913F912F910F900FBE3F
:100560000F901F901895CF92DF92EF92FF92CF934A
:10057000DF93EC016A017B01411581EE58076105AB
:100580007105F1F0EC89FD8981E090E008A002C0DE
:10059000880F991F0A94E2F7808360E079E08DE389
:1005A00090E0A7019601C3D32150310941095109B7
:1005B0005695479537952795211580E1380790F096
:1005C000EC89FD89108260E874E88EE190E0A70173
:1005D0009601ADD3215031094109510956954795EE
:1005E00037952795E889F9893083EA89FB89208343
:1005F00019A2EE89FF89408181E090E09C010C8C7A
:1006000002C0220F331F0A94E2F7422B4083EE8987
:10061000FF8940819C010D8C02C0220F331F0A9478
:10062000E2F7422B4083EE89FF8940819C010E8CCA
:1006300002C0220F331F0A94E2F7422B4083EE8957
:10064000FF8920810F8C02C0880F991F0A94E2F75E
:10065000809582238083DF91CF91FF90EF90DF9090
:10066000CF900895109225011092240188EE93E016
:10067000A0E0B0E08093260190932701A093280189
:10068000B093290186E091E09093230180932201A9
:1006900088E891E090932F0180932E0184E491E00B
:1006A000909331018093300185EC90E09093330179
:1006B0008093320184EC90E0909335018093340173
:1006C00080EC90E0909337018093360181EC90E0CC
:1006D000909339018093380182EC90E090933B0134
:1006E00080933A0186EC90E090933D0180933C0129
:1006F00084E080933E0183E080933F0187E0809314
:10070000400185E08093410181E08093420108959A
:10071000DAD019DDC1E7D2E0BADD2097E9F3E1DEF6
:10072000FBCFCF92DF92EF92FF920F931F93CF9365
:10073000DF936C01EB017A01E60EF71E00E010E09A
:100740000BC06991D601ED91FC910190F081E02DF3
:10075000C6010995080F191FCE15DF0591F7C801CD
:10076000DF91CF911F910F91FF90EF90DF90CF908D
:1007700008951F920F920FB60F9211242F933F935B
:100780008F939F93AF93BF938091CC019091CD01B4
:10079000A091CE01B091CF013091D401232F2D5FD4
:1007A0002D3720F40196A11DB11D05C0232F2A5716
:1007B0000296A11DB11D2093D4018093CC0190938A
:1007C000CD01A093CE01B093CF018091D001909143
:1007D000D101A091D201B091D3010196A11DB11D0B
:1007E0008093D0019093D101A093D201B093D30113
:1007F000BF91AF919F918F913F912F910F900FBE1D
:100800000F901F9018950F931F938FB7F894009136
:10081000CC011091CD012091CE013091CF018FBF3D
:10082000B801C9011F910F9108950F931F939FB7AE
:10083000F8940091D0011091D1012091D201309112
:10084000D30186B5A89B06C08F3F21F00F5F1F4FD5
:100850002F4F3F4F9FBF322F212F102F0027080F00
:10086000111D211D311D42E0000F111F221F331FDA
:100870004A95D1F7B801C9011F910F910895CF9200
:10088000DF92EF92FF92CF93DF936B017C01CDDF7C
:10089000EB010DC0CADF6C1B7D0B683E734038F066
:1008A00081E0C81AD108E108F108C851DC4FC11431
:1008B000D104E104F10471F7DF91CF91FF90EF9043
:1008C000DF90CF900895789484B5826084BD84B51C
:1008D000816084BD85B5826085BD85B5816085BD3B
:1008E000EEE6F0E0808181608083E1E8F0E0108254
:1008F000808182608083808181608083E0E8F0E095
:10090000808181608083E1EBF0E08081846080837E
:10091000E0EBF0E0808181608083EAE7F0E08081B5
:100920008460808380818260808380818160808315
:100930008081806880831092C1000895833069F0BF
:1009400028F48130A1F0823011F514C08630B1F066
:100950008730C1F08430D9F404C0809180008F7753
:1009600003C0809180008F7D80938000089584B5BE
:100970008F7702C084B58F7D84BD08958091B000CB
:100980008F7703C08091B0008F7D8093B000089571
:10099000CF93DF9390E0FC01E458FF4F4491FC01BA
:1009A000E057FF4F8491882341F190E0880F991F11
:1009B000FC01E854FF4F25913491D90182559F4F96
:1009C000FC0185919491C82FD92F9FB7F8948C91F1
:1009D000611106C0409584238C938881842308C0CC
:1009E000623041F4242F209582238C938881842BBC
:1009F000888302C0842B8C939FBFDF91CF91089591
:100A00000F931F93CF93DF931F92CDB7DEB7282F9D
:100A100030E0F901E859FF4F8491F901E458FF4FA4
:100A20001491F901E057FF4F04910023C9F0882386
:100A300019F0698383DF6981E02FF0E0EE0FFF1F7B
:100A4000E255FF4F85919491DC019FB7F8948C910A
:100A5000611103C01095812301C0812B8C939FBF2E
:100A60000F90DF91CF911F910F910895CF93DF9356
:100A7000282F30E0F901E859FF4F8491F901E4583B
:100A8000FF4FD491F901E057FF4FC491CC2381F07F
:100A9000811154DFEC2FF0E0EE0FFF1FEC55FF4FFC
:100AA00085919491DC018C918D2321E030E011F44B
:100AB00020E030E0C901DF91CF91089584B58368CB
:100AC00084BD17BC61E086E063CF84B5836284BDDA
:100AD00018BC61E085E05CCFCF93DF9360E08CE0F1
:100AE0008FDF60E088E08CDFC7E0D0E060E084E08A
:100AF00087DF8091D50190E00C2E02C095958795F7
:100B00000A94E2F780FF02C061E001C060E088E083
:100B100077DF61E084E074DF219740F761E08CE0EB
:100B2000DF91CF916DCFCF93DF93EC0161E08CE04B
:100B30002FDF61E087E02CDF61E088E029DF61E002
:100B400084E026DF1092D501CE01C6DF60E087E0A9
:100B5000DF91CF9155CFE0EBF0E0908193689083E7
:100B600087708093B1001092B30061E08BE010CFEA
:100B7000E0EBF0E090819362908387708093B10006
:100B80001092B40061E083E003CF1F93CF93DF9313
:100B90001F92CDB7DEB7FC01142F6083418386ED31
:100BA00091E06983C0DF69816230C9F020F461306F
:100BB00009F03DC006C0633001F1643009F037C070
:100BC00029C08091D501837F8093D50186ED91E086
:100BD00083DF812F0F90DF91CF911F91BCCF809148
:100BE000D5018D7E8093D50186ED91E075DF812F53
:100BF0000F90DF91CF911F91BBCF8091D5018F7561
:100C00008093D50186ED91E067DF0F90DF91CF9162
:100C10001F9154CF8091D5018E7B8093D50186EDB5
:100C200091E05ADF0F90DF91CF911F914ECF0F903F
:100C3000DF91CF911F910895FC0180818230A1F056
:100C400020F4813009F058C006C0833039F0843078
:100C500009F052C006C073E0E2E008C077E0E5E0CA
:100C600005C076E0E0E002C074E0E1E06230D1F07F
:100C7000643069F1613009F03FC041E050E09A0111
:100C8000072E01C0220F0A94EAF720950E2E01C00C
:100C9000440F0A94EAF78091D501842B28232093EE
:100CA000D50127C021E030E0A9010E2E01C0440F7C
:100CB0000A94EAF740958091D5014823072E01C098
:100CC000220F0A94EAF7422B4093D50112C081E02B
:100CD00090E0AC0101C0440FEA95EAF701C0880F2B
:100CE0007A95EAF7842B80959091D501982390937B
:100CF000D50186ED91E0F0CE0895FC01808182302F
:100D000061F018F4813079F405C0833049F0843003
:100D100051F408C06093B30008956093B40008953F
:100D200067BD089568BD08951092D6010895A1E2A7
:100D30001A2EAA1BBB1BFD010DC0AA1FBB1FEE1F55
:100D4000FF1FA217B307E407F50720F0A21BB30BA0
:100D5000E40BF50B661F771F881F991F1A9469F71C
:100D600060957095809590959B01AC01BD01CF0178
:100D70000895EE0FFF1F0590F491E02D0994F8946B
:020D8000FFCFA3
:100D8200020000000000F90191039B01CA01AE01BB
:020D9200EE0170
:00000001FF
