:1000000063C0000086C0000084C0000082C0000001
:1000100080C000007EC000007CC000007AC00000EC
:1000200078C0000076C0000074C0000072C00000FC
:1000300070C000006EC000006CC000006AC000000C
:1000400098C3000066C00000CFC100000EC20000CF
:1000500060C000005EC000005CC000005AC000002C
:1000600058C0000056C00000000000070002010058
:100070000003040600000000000000000102040864
:100080001020408001020408102001020408102002
:10009000040404040404040402020202020203032E
:1000A00003030303000000002300260029000000D2
:1000B0000000250028002B0000000000240027007D
:1000C0002A004401EF02820611241FBECFEFD8E0C0
:1000D000DEBFCDBF11E0A0E0B1E0EEE5FDE002C083
:1000E00005900D92AE31B107D9F711E0AEE1B1E064
:1000F00001C01D92AF3DB107E1F710E0C8ECD0E0C0
:1001000003C02297FE0125D6C23CD107D1F7BDD24C
:1001100024C676CF61E088E291E07CD561E086E29A
:1001200091E078D561E084E291E074D561E082E20B
:1001300091E070C540E855E260E070E08AE291E04D
:10014000CFD160E071E08AE291E001D360E083E129
:100150000DD460E082E10AD46FEF88E291E0BBD574
:1001600064E088E291E056D56FEF86E291E0B3D586
:1001700064E086E291E04ED56FEF84E291E0ABD58A
:1001800064E084E291E046D56FEF82E291E0A3D58E
:1001900064E082E291E03ED5BDCFCF93DF93EC01E6
:1001A00062E088E291E036D562E086E291E032D505
:1001B00061E084E291E02ED561E082E291E02AD50F
:1001C000BE01882777FD8095982FDF91CF9145C399
:1001D000CF93DF93EC0161E088E291E01BD561E011
:1001E00086E291E017D562E084E291E013D562E007
:1001F00082E291E00FD5BE01882777FD8095982F88
:10020000DF91CF912AC3CF93DF93EC0162E088E2C4
:1002100091E000D562E086E291E0FCD462E084E205
:1002200091E0F8D462E082E291E0F4D4BE01882744
:1002300077FD8095982FDF91CF910FC383E104D490
:10024000909321018093200182E1FED390931F01BE
:1002500080931E0120912001309121012130310530
:1002600081F4019739F488EE93E0CDDF88EE93E0D6
:10027000AFDF06C088EE93E0C6DF88EE93E08DDF47
:1002800049CF019781F3089542E061E088E291E06F
:100290006AD442E062E086E291E065D442E063E045
:1002A00084E291E060D442E064E082E291E05BC4E9
:1002B000FC0184859585FC01E05CFF4F2081318144
:1002C000FC01EE5BFF4F80819181281B390B2F735E
:1002D0003327C9010895FC0184859585FC01E05C04
:1002E000FF4F40815181FC01EE5BFF4F2081318146
:1002F0004217530741F00190F081E02DE80FF91FFC
:10030000208130E002C02FEF3FEFC9010895FC01CA
:1003100084859585FC01E05CFF4F40815181FC01A3
:10032000EE5BFF4F208131814217530781F0A0819E
:10033000B181A80FB91F8C91208131812F5F3F4F70
:100340002F73332731832083282F30E002C02FEF13
:100350003FEFC9010895FC0181A1882329F0A489F8
:10036000B5898C9186FFFBCF11A20895CF93DF93BF
:10037000FC0126853785D901A05CBF4F8D919C91EA
:10038000119701968F739927E901CE5BDF4F488162
:10039000598184179507D9F30D90BC91A02DA20F18
:1003A000B31F6C93A685B785A05CBF4F11969C9335
:1003B0008E93A689B7892C9181E090E0078C02C0CA
:1003C000880F991F0A94E2F7282B2C9381E081A3D0
:1003D0000488F589E02D80818064808381E090E04D
:1003E000DF91CF91089508951F920F920FB60F924B
:1003F00011242F933F934F938F939F93EF93FF93EA
:100400008091C00082FD1CC04091C6008091D00147
:100410009091D10101968F7399272091D20130914B
:10042000D3018217930771F0E091D001F091D101CF
:10043000E057FE4F40839093D1018093D00102C0DA
:100440008091C600FF91EF919F918F914F913F91C5
:100450002F910F900FBE0F901F9018958AE291E098
:1004600027DF892B09F0BFCF08951F920F920FB697
:100470000F9211242F933F938F939F93EF93FF93AA
:1004800020918C0130918D0180918E0190918F018E
:100490002817390731F48091C1008F7D8093C10006
:1004A00014C0E0918E01F0918F01E45BFE4F20813A
:1004B00080918E0190918F0101968F73992790936F
:1004C0008F0180938E012093C600FF91EF919F9141
:1004D0008F913F912F910F900FBE0F901F90189505
:1004E000CF92DF92EF92FF92CF93DF93EC016A01FC
:1004F0007B01411581EE580761057105F1F0EC892A
:10050000FD8981E090E008A002C0880F991F0A943D
:10051000E2F7808360E079E08DE390E0A701960147
:10052000F4D3215031094109510956954795379522
:100530002795211580E1380790F0EC89FD8910821C
:1005400060E874E88EE190E0A7019601DED32150C7
:100550003109410951095695479537952795E889FD
:10056000F9893083EA89FB89208319A2EE89FF8902
:10057000408181E090E09C010C8C02C0220F331F6F
:100580000A94E2F7422B4083EE89FF8940819C0167
:100590000D8C02C0220F331F0A94E2F7422B4083D6
:1005A000EE89FF8940819C010E8C02C0220F331F0F
:1005B0000A94E2F7422B4083EE89FF8920810F8C59
:1005C00002C0880F991F0A94E2F7809582238083E6
:1005D000DF91CF91FF90EF90DF90CF900895109230
:1005E0002D0110922C0188EE93E0A0E0B0E0809302
:1005F0002E0190932F01A0933001B093310181E13E
:1006000091E090932B0180932A0180E991E09093EF
:100610003701809336018CE491E090933901809307
:10062000380185EC90E090933B0180933A0184EC93
:1006300090E090933D0180933C0180EC90E090939A
:100640003F0180933E0181EC90E0909341018093C3
:10065000400182EC90E0909343018093420186EC4C
:1006600090E0909345018093440184E0809346019B
:1006700083E08093470187E08093480185E0809381
:10068000490181E080934A0108950BD153DDCEE208
:10069000D2E0D4DD2097E9F3E1DEFBCFCF92DF9209
:1006A000EF92FF920F931F93CF93DF936C01EB01B7
:1006B0007A01E60EF71E00E010E00BC06991D6014A
:1006C000ED91FC910190F081E02DC6010995080F94
:1006D000191FCE15DF0591F7C801DF91CF911F914A
:1006E0000F91FF90EF90DF90CF9008956115710505
:1006F00081F0DB010D900020E9F7AD014150510977
:10070000461B570BDC01ED91FC910280F381E02D3B
:10071000099480E090E00895DC01ED91FC91019056
:10072000F081E02D09940F931F93CF93DF93EC0199
:100730006DE0F2DF8C016AE0CE01EEDF9C01200F5C
:10074000311FC901DF91CF911F910F9108950F9330
:100750001F93CF93DF93EC01C9DF8C01CE01E3DF60
:100760009801280F391FC901DF91CF911F910F9177
:1007700008951F920F920FB60F9211242F933F935B
:100780008F939F93AF93BF938091D4019091D501A4
:10079000A091D601B091D7013091DC01232F2D5FBC
:1007A0002D3720F40196A11DB11D05C0232F2A5716
:1007B0000296A11DB11D2093DC018093D40190937A
:1007C000D501A093D601B093D7018091D801909123
:1007D000D901A091DA01B091DB010196A11DB11DF3
:1007E0008093D8019093D901A093DA01B093DB01F3
:1007F000BF91AF919F918F913F912F910F900FBE1D
:100800000F901F9018950F931F939FB7F894009126
:10081000D8011091D9012091DA013091DB0186B520
:10082000A89B06C08F3F21F00F5F1F4F2F4F3F4FF8
:100830009FBF322F212F102F0027080F111D211DC0
:10084000311D42E0000F111F221F331F4A95D1F7BF
:10085000B801C9011F910F910895CF92DF92EF92D5
:10086000FF92CF93DF936B017C01CDDFEB010DC0D5
:10087000CADF6C1B7D0B683E734038F081E0C81AFC
:10088000D108E108F108C851DC4FC114D104E104DA
:10089000F10471F7DF91CF91FF90EF90DF90CF904F
:1008A0000895789484B5826084BD84B5816084BDE8
:1008B00085B5826085BD85B5816085BDEEE6F0E0D9
:1008C000808181608083E1E8F0E010828081826035
:1008D0008083808181608083E0E8F0E080818160B6
:1008E0008083E1EBF0E0808184608083E0EBF0E0E6
:1008F000808181608083EAE7F0E08081846080838A
:100900008081826080838081816080838081806833
:1009100080831092C1000895833069F028F48130FB
:10092000A1F0823011F514C08630B1F08730C1F0EB
:100930008430D9F404C0809180008F7703C0809107
:1009400080008F7D80938000089584B58F7702C0EA
:1009500084B58F7D84BD08958091B0008F7703C0EA
:100960008091B0008F7D8093B0000895CF93DF9386
:1009700090E0FC01E458FF4F4491FC01E057FF4F29
:100980008491882341F190E0880F991FFC01E8547D
:10099000FF4F25913491D90182559F4FFC018591DC
:1009A0009491C82FD92F9FB7F8948C91611106C0EC
:1009B000409584238C938881842308C0623041F45D
:1009C000242F209582238C938881842B888302C0D6
:1009D000842B8C939FBFDF91CF9108950F931F932A
:1009E000CF93DF931F92CDB7DEB7282F30E0F90108
:1009F000E859FF4F8491F901E458FF4F1491F90130
:100A0000E057FF4F04910023C9F0882319F0698350
:100A100083DF6981E02FF0E0EE0FFF1FE255FF4F0B
:100A200085919491DC019FB7F8948C91611103C07A
:100A30001095812301C0812B8C939FBF0F90DF9174
:100A4000CF911F910F910895CF93DF93282F30E01E
:100A5000F901E859FF4F8491F901E458FF4FD4910F
:100A6000F901E057FF4FC491CC2381F0811154DF8D
:100A7000EC2FF0E0EE0FFF1FEC55FF4F85919491A6
:100A8000DC018C918D2321E030E011F420E030E096
:100A9000C901DF91CF91089584B5836884BD17BCE7
:100AA00061E086E063CF84B5836284BD18BC61E0F9
:100AB00085E05CCFCF93DF9360E08CE08FDF60E078
:100AC00088E08CDFC7E0D0E060E084E087DF8091E1
:100AD000DD0190E00C2E02C0959587950A94E2F70F
:100AE00080FF02C061E001C060E088E077DF61E084
:100AF00084E074DF219740F761E08CE0DF91CF91D3
:100B00006DCFCF93DF93EC0161E08CE02FDF61E0EC
:100B100087E02CDF61E088E029DF61E084E026DF08
:100B20001092DD01CE01C6DF60E087E0DF91CF915A
:100B300055CFE0EBF0E090819368908387708093CD
:100B4000B1001092B30061E08BE010CFE0EBF0E079
:100B500090819362908387708093B1001092B4006B
:100B600061E083E003CF1F93CF93DF931F92CDB754
:100B7000DEB7FC01142F608341838EED91E0698321
:100B8000C0DF69816230C9F020F4613009F03DC0F6
:100B900006C0633001F1643009F037C029C080918C
:100BA000DD01837F8093DD018EED91E083DF812F76
:100BB0000F90DF91CF911F91BCCF8091DD018D7E91
:100BC0008093DD018EED91E075DF812F0F90DF9135
:100BD000CF911F91BBCF8091DD018F758093DD0197
:100BE0008EED91E067DF0F90DF91CF911F9154CF91
:100BF0008091DD018E7B8093DD018EED91E05ADFE7
:100C00000F90DF91CF911F914ECF0F90DF91CF9139
:100C10001F910895FC0180818230A1F020F4813081
:100C200009F058C006C0833039F0843009F052C052
:100C300006C073E0E2E008C077E0E5E005C076E0DA
:100C4000E0E002C074E0E1E06230D1F0643069F1CC
:100C5000613009F03FC041E050E09A01072E01C029
:100C6000220F0A94EAF720950E2E01C0440F0A9431
:100C7000EAF78091DD01842B28232093DD0127C032
:100C800021E030E0A9010E2E01C0440F0A94EAF7DA
:100C900040958091DD014823072E01C0220F0A9460
:100CA000EAF7422B4093DD0112C081E090E0AC01F5
:100CB00001C0440FEA95EAF701C0880F7A95EAF778
:100CC000842B80959091DD0198239093DD018EED2A
:100CD00091E0F0CE0895FC018081823061F018F43B
:100CE000813079F405C0833049F0843051F408C074
:100CF0006093B30008956093B400089567BD0895AC
:100D000068BD08951092DE010895A1E21A2EAA1B73
:100D1000BB1BFD010DC0AA1FBB1FEE1FFF1FA217AB
:100D2000B307E407F50720F0A21BB30BE40BF50BA8
:100D3000661F771F881F991F1A9469F76095709531
:100D4000809590959B01AC01BD01CF010895EE0FF8
:0E0D5000FF1F0590F491E02D0994F894FFCF59
:100D5E004D6F746F72207061727479210000000003
:0E0D6E0000B6014E03580187016B01AB010076
:00000001FF
